{
  "contractName": "AuthContract",
  "abi": [
    {
      "inputs": [],
      "stateMutability": "nonpayable",
      "type": "constructor"
    },
    {
      "inputs": [],
      "name": "owner",
      "outputs": [
        {
          "internalType": "address",
          "name": "",
          "type": "address"
        }
      ],
      "stateMutability": "view",
      "type": "function"
    },
    {
      "inputs": [],
      "name": "authenticateUser",
      "outputs": [],
      "stateMutability": "payable",
      "type": "function"
    },
    {
      "inputs": [
        {
          "internalType": "address",
          "name": "user",
          "type": "address"
        }
      ],
      "name": "isUserAuthenticated",
      "outputs": [
        {
          "internalType": "bool",
          "name": "",
          "type": "bool"
        }
      ],
      "stateMutability": "view",
      "type": "function"
    },
    {
      "inputs": [],
      "name": "someAuthenticatedFunction",
      "outputs": [],
      "stateMutability": "nonpayable",
      "type": "function"
    },
    {
      "inputs": [],
      "name": "contractBalance",
      "outputs": [
        {
          "internalType": "uint256",
          "name": "",
          "type": "uint256"
        }
      ],
      "stateMutability": "view",
      "type": "function"
    }
  ],
  "bytecode": "0x608060405234801561001057600080fd5b50336000806101000a81548173ffffffffffffffffffffffffffffffffffffffff021916908373ffffffffffffffffffffffffffffffffffffffff16021790555061070c806100606000396000f3fe6080604052600436106100495760003560e01c80625ce66f1461004e578063717ca681146100585780638b7afe2e146100955780638da5cb5b146100c0578063cb570282146100eb575b600080fd5b610056610102565b005b34801561006457600080fd5b5061007f600480360381019061007a919061042e565b61022c565b60405161008c9190610476565b60405180910390f35b3480156100a157600080fd5b506100aa610311565b6040516100b791906104aa565b60405180910390f35b3480156100cc57600080fd5b506100d5610319565b6040516100e291906104d4565b60405180910390f35b3480156100f757600080fd5b5061010061033d565b005b600160003373ffffffffffffffffffffffffffffffffffffffff1673ffffffffffffffffffffffffffffffffffffffff16815260200190815260200160002060009054906101000a900460ff161561018f576040517f08c379a00000000000000000000000000000000000000000000000000000000081526004016101869061054c565b60405180910390fd5b60013410156101d3576040517f08c379a00000000000000000000000000000000000000000000000000000000081526004016101ca906105de565b60405180910390fd5b60018060003373ffffffffffffffffffffffffffffffffffffffff1673ffffffffffffffffffffffffffffffffffffffff16815260200190815260200160002060006101000a81548160ff021916908315150217905550565b60008060009054906101000a900473ffffffffffffffffffffffffffffffffffffffff1673ffffffffffffffffffffffffffffffffffffffff163373ffffffffffffffffffffffffffffffffffffffff16146102bd576040517f08c379a00000000000000000000000000000000000000000000000000000000081526004016102b49061064a565b60405180910390fd5b600160008373ffffffffffffffffffffffffffffffffffffffff1673ffffffffffffffffffffffffffffffffffffffff16815260200190815260200160002060009054906101000a900460ff169050919050565b600047905090565b60008054906101000a900473ffffffffffffffffffffffffffffffffffffffff1681565b600160003373ffffffffffffffffffffffffffffffffffffffff1673ffffffffffffffffffffffffffffffffffffffff16815260200190815260200160002060009054906101000a900460ff166103c9576040517f08c379a00000000000000000000000000000000000000000000000000000000081526004016103c0906106b6565b60405180910390fd5b565b600080fd5b600073ffffffffffffffffffffffffffffffffffffffff82169050919050565b60006103fb826103d0565b9050919050565b61040b816103f0565b811461041657600080fd5b50565b60008135905061042881610402565b92915050565b600060208284031215610444576104436103cb565b5b600061045284828501610419565b91505092915050565b60008115159050919050565b6104708161045b565b82525050565b600060208201905061048b6000830184610467565b92915050565b6000819050919050565b6104a481610491565b82525050565b60006020820190506104bf600083018461049b565b92915050565b6104ce816103f0565b82525050565b60006020820190506104e960008301846104c5565b92915050565b600082825260208201905092915050565b7f5573657220697320616c72656164792061757468656e74696361746564000000600082015250565b6000610536601d836104ef565b915061054182610500565b602082019050919050565b6000602082019050818103600083015261056581610529565b9050919050565b7f496e73756666696369656e74207061796d656e7420666f722061757468656e7460008201527f69636174696f6e00000000000000000000000000000000000000000000000000602082015250565b60006105c86027836104ef565b91506105d38261056c565b604082019050919050565b600060208201905081810360008301526105f7816105bb565b9050919050565b7f4e6f742074686520636f6e7472616374206f776e657200000000000000000000600082015250565b60006106346016836104ef565b915061063f826105fe565b602082019050919050565b6000602082019050818103600083015261066381610627565b9050919050565b7f4e6f7420616e2061757468656e74696361746564207573657200000000000000600082015250565b60006106a06019836104ef565b91506106ab8261066a565b602082019050919050565b600060208201905081810360008301526106cf81610693565b905091905056fea2646970667358221220d659be56a5a1cbdcbcea81bdcf2ce0ef9390dbfaea4e895c6ffcadedb995e4ba64736f6c63430008130033",
  "immutableReferences": {},
  "source": "// SPDX-License-Identifier: UNLICENSED\r\npragma solidity ^0.8.19;\r\n\r\ncontract AuthContract {\r\n    address public owner;\r\n    mapping(address => bool) private authenticatedUsers;\r\n\r\n    // event UserAuthenticated(address indexed user, uint256 amountPaid);\r\n\r\n    modifier onlyOwner() {\r\n        require(msg.sender == owner, \"Not the contract owner\");\r\n        _;\r\n    }\r\n\r\n    modifier onlyAuthenticatedUser() {\r\n        require(authenticatedUsers[msg.sender], \"Not an authenticated user\");\r\n        _;\r\n    }\r\n\r\n    modifier notAuthenticatedUser() {\r\n        require(\r\n            !authenticatedUsers[msg.sender],\r\n            \"User is already authenticated\"\r\n        );\r\n        _;\r\n    }\r\n\r\n    constructor() {\r\n        owner = msg.sender;\r\n    }\r\n\r\n    function authenticateUser() external payable notAuthenticatedUser {\r\n        require(msg.value >= 1 wei, \"Insufficient payment for authentication\");\r\n        authenticatedUsers[msg.sender] = true;\r\n        // emit UserAuthenticated(msg.sender, msg.value);\r\n        // Send any excess payment back to the sender\r\n        // if (msg.value > 1 ether) {\r\n        //     payable(msg.sender).transfer(msg.value - 1 ether);\r\n        // }\r\n    }\r\n\r\n    function isUserAuthenticated(\r\n        address user\r\n    ) external view onlyOwner returns (bool) {\r\n        return authenticatedUsers[user];\r\n    }\r\n\r\n    function someAuthenticatedFunction() external onlyAuthenticatedUser {\r\n        // Your logic for authenticated users goes here\r\n    }\r\n\r\n    function contractBalance() external view returns (uint) {\r\n        return address(this).balance;\r\n    }\r\n}\r\n",
  "sourcePath": "C:\\Users\\parth\\Desktop\\Web3.0\\Auth\\contracts\\Auth.sol",
  "compiler": {
    "name": "solc",
    "version": "0.8.19+commit.7dd6d404.Emscripten.clang"
  },
  "schemaVersion": "3.4.16",
  "updatedAt": "2024-03-27T05:08:16.433Z",
  "devdoc": {
    "kind": "dev",
    "methods": {},
    "version": 1
  },
  "userdoc": {
    "kind": "user",
    "methods": {},
    "version": 1
  }
}