{
  "contractName": "CommunityEventsOld",
  "abi": [
    {
      "anonymous": false,
      "inputs": [
        {
          "indexed": false,
          "internalType": "uint256",
          "name": "eventId",
          "type": "uint256"
        },
        {
          "indexed": true,
          "internalType": "address",
          "name": "organizer",
          "type": "address"
        },
        {
          "indexed": false,
          "internalType": "string",
          "name": "title",
          "type": "string"
        },
        {
          "indexed": false,
          "internalType": "uint256",
          "name": "date",
          "type": "uint256"
        }
      ],
      "name": "EventCreated",
      "type": "event"
    },
    {
      "inputs": [
        {
          "internalType": "uint256",
          "name": "",
          "type": "uint256"
        }
      ],
      "name": "events",
      "outputs": [
        {
          "internalType": "uint256",
          "name": "eventId",
          "type": "uint256"
        },
        {
          "internalType": "address",
          "name": "organizer",
          "type": "address"
        },
        {
          "internalType": "string",
          "name": "title",
          "type": "string"
        },
        {
          "internalType": "string",
          "name": "description",
          "type": "string"
        },
        {
          "internalType": "uint256",
          "name": "date",
          "type": "uint256"
        },
        {
          "internalType": "string",
          "name": "location",
          "type": "string"
        },
        {
          "internalType": "bool",
          "name": "isActive",
          "type": "bool"
        }
      ],
      "stateMutability": "view",
      "type": "function"
    },
    {
      "inputs": [],
      "name": "totalEvents",
      "outputs": [
        {
          "internalType": "uint256",
          "name": "",
          "type": "uint256"
        }
      ],
      "stateMutability": "view",
      "type": "function"
    },
    {
      "inputs": [
        {
          "internalType": "string",
          "name": "_title",
          "type": "string"
        },
        {
          "internalType": "string",
          "name": "_description",
          "type": "string"
        },
        {
          "internalType": "uint256",
          "name": "_date",
          "type": "uint256"
        },
        {
          "internalType": "string",
          "name": "_location",
          "type": "string"
        }
      ],
      "name": "createEvent",
      "outputs": [],
      "stateMutability": "nonpayable",
      "type": "function"
    },
    {
      "inputs": [
        {
          "internalType": "uint256",
          "name": "_eventId",
          "type": "uint256"
        }
      ],
      "name": "getEvent",
      "outputs": [
        {
          "components": [
            {
              "internalType": "uint256",
              "name": "eventId",
              "type": "uint256"
            },
            {
              "internalType": "address",
              "name": "organizer",
              "type": "address"
            },
            {
              "internalType": "string",
              "name": "title",
              "type": "string"
            },
            {
              "internalType": "string",
              "name": "description",
              "type": "string"
            },
            {
              "internalType": "uint256",
              "name": "date",
              "type": "uint256"
            },
            {
              "internalType": "string",
              "name": "location",
              "type": "string"
            },
            {
              "internalType": "bool",
              "name": "isActive",
              "type": "bool"
            }
          ],
          "internalType": "struct CommunityEventsOld.Event",
          "name": "",
          "type": "tuple"
        }
      ],
      "stateMutability": "view",
      "type": "function"
    }
  ],
  "bytecode": "0x608060405234801561001057600080fd5b5061105b806100206000396000f3fe608060405234801561001057600080fd5b506004361061004c5760003560e01c80630b791430146100515780636d1884e014610087578063ba870686146100b7578063ff3a0fb6146100d5575b600080fd5b61006b60048036038101906100669190610798565b6100f1565b60405161007e97969594939291906108c0565b60405180910390f35b6100a1600480360381019061009c9190610798565b6102f8565b6040516100ae9190610a65565b60405180910390f35b6100bf61055f565b6040516100cc9190610a87565b60405180910390f35b6100ef60048036038101906100ea9190610bd7565b610565565b005b60006020528060005260406000206000915090508060000154908060010160009054906101000a900473ffffffffffffffffffffffffffffffffffffffff169080600201805461014090610cc1565b80601f016020809104026020016040519081016040528092919081815260200182805461016c90610cc1565b80156101b95780601f1061018e576101008083540402835291602001916101b9565b820191906000526020600020905b81548152906001019060200180831161019c57829003601f168201915b5050505050908060030180546101ce90610cc1565b80601f01602080910402602001604051908101604052809291908181526020018280546101fa90610cc1565b80156102475780601f1061021c57610100808354040283529160200191610247565b820191906000526020600020905b81548152906001019060200180831161022a57829003601f168201915b50505050509080600401549080600501805461026290610cc1565b80601f016020809104026020016040519081016040528092919081815260200182805461028e90610cc1565b80156102db5780601f106102b0576101008083540402835291602001916102db565b820191906000526020600020905b8154815290600101906020018083116102be57829003601f168201915b5050505050908060060160009054906101000a900460ff16905087565b6103006106f9565b6000808381526020019081526020016000206040518060e0016040529081600082015481526020016001820160009054906101000a900473ffffffffffffffffffffffffffffffffffffffff1673ffffffffffffffffffffffffffffffffffffffff1673ffffffffffffffffffffffffffffffffffffffff16815260200160028201805461038d90610cc1565b80601f01602080910402602001604051908101604052809291908181526020018280546103b990610cc1565b80156104065780601f106103db57610100808354040283529160200191610406565b820191906000526020600020905b8154815290600101906020018083116103e957829003601f168201915b5050505050815260200160038201805461041f90610cc1565b80601f016020809104026020016040519081016040528092919081815260200182805461044b90610cc1565b80156104985780601f1061046d57610100808354040283529160200191610498565b820191906000526020600020905b81548152906001019060200180831161047b57829003601f168201915b50505050508152602001600482015481526020016005820180546104bb90610cc1565b80601f01602080910402602001604051908101604052809291908181526020018280546104e790610cc1565b80156105345780601f1061050957610100808354040283529160200191610534565b820191906000526020600020905b81548152906001019060200180831161051757829003601f168201915b505050505081526020016006820160009054906101000a900460ff1615151515815250509050919050565b60015481565b6001600081548092919061057890610d21565b91905055506040518060e0016040528060015481526020013373ffffffffffffffffffffffffffffffffffffffff1681526020018581526020018481526020018381526020018281526020016001151581525060008060015481526020019081526020016000206000820151816000015560208201518160010160006101000a81548173ffffffffffffffffffffffffffffffffffffffff021916908373ffffffffffffffffffffffffffffffffffffffff16021790555060408201518160020190816106459190610f15565b50606082015181600301908161065b9190610f15565b506080820151816004015560a082015181600501908161067b9190610f15565b5060c08201518160060160006101000a81548160ff0219169083151502179055509050503373ffffffffffffffffffffffffffffffffffffffff167f56acb10c6ecae7e178ece5d22c2f0346efb606427ea6a15f96904d0ceec03d1d60015486856040516106eb93929190610fe7565b60405180910390a250505050565b6040518060e0016040528060008152602001600073ffffffffffffffffffffffffffffffffffffffff168152602001606081526020016060815260200160008152602001606081526020016000151581525090565b6000604051905090565b600080fd5b600080fd5b6000819050919050565b61077581610762565b811461078057600080fd5b50565b6000813590506107928161076c565b92915050565b6000602082840312156107ae576107ad610758565b5b60006107bc84828501610783565b91505092915050565b6107ce81610762565b82525050565b600073ffffffffffffffffffffffffffffffffffffffff82169050919050565b60006107ff826107d4565b9050919050565b61080f816107f4565b82525050565b600081519050919050565b600082825260208201905092915050565b60005b8381101561084f578082015181840152602081019050610834565b60008484015250505050565b6000601f19601f8301169050919050565b600061087782610815565b6108818185610820565b9350610891818560208601610831565b61089a8161085b565b840191505092915050565b60008115159050919050565b6108ba816108a5565b82525050565b600060e0820190506108d5600083018a6107c5565b6108e26020830189610806565b81810360408301526108f4818861086c565b90508181036060830152610908818761086c565b905061091760808301866107c5565b81810360a0830152610929818561086c565b905061093860c08301846108b1565b98975050505050505050565b61094d81610762565b82525050565b61095c816107f4565b82525050565b600082825260208201905092915050565b600061097e82610815565b6109888185610962565b9350610998818560208601610831565b6109a18161085b565b840191505092915050565b6109b5816108a5565b82525050565b600060e0830160008301516109d36000860182610944565b5060208301516109e66020860182610953565b50604083015184820360408601526109fe8282610973565b91505060608301518482036060860152610a188282610973565b9150506080830151610a2d6080860182610944565b5060a083015184820360a0860152610a458282610973565b91505060c0830151610a5a60c08601826109ac565b508091505092915050565b60006020820190508181036000830152610a7f81846109bb565b905092915050565b6000602082019050610a9c60008301846107c5565b92915050565b600080fd5b600080fd5b7f4e487b7100000000000000000000000000000000000000000000000000000000600052604160045260246000fd5b610ae48261085b565b810181811067ffffffffffffffff82111715610b0357610b02610aac565b5b80604052505050565b6000610b1661074e565b9050610b228282610adb565b919050565b600067ffffffffffffffff821115610b4257610b41610aac565b5b610b4b8261085b565b9050602081019050919050565b82818337600083830152505050565b6000610b7a610b7584610b27565b610b0c565b905082815260208101848484011115610b9657610b95610aa7565b5b610ba1848285610b58565b509392505050565b600082601f830112610bbe57610bbd610aa2565b5b8135610bce848260208601610b67565b91505092915050565b60008060008060808587031215610bf157610bf0610758565b5b600085013567ffffffffffffffff811115610c0f57610c0e61075d565b5b610c1b87828801610ba9565b945050602085013567ffffffffffffffff811115610c3c57610c3b61075d565b5b610c4887828801610ba9565b9350506040610c5987828801610783565b925050606085013567ffffffffffffffff811115610c7a57610c7961075d565b5b610c8687828801610ba9565b91505092959194509250565b7f4e487b7100000000000000000000000000000000000000000000000000000000600052602260045260246000fd5b60006002820490506001821680610cd957607f821691505b602082108103610cec57610ceb610c92565b5b50919050565b7f4e487b7100000000000000000000000000000000000000000000000000000000600052601160045260246000fd5b6000610d2c82610762565b91507fffffffffffffffffffffffffffffffffffffffffffffffffffffffffffffffff8203610d5e57610d5d610cf2565b5b600182019050919050565b60008190508160005260206000209050919050565b60006020601f8301049050919050565b600082821b905092915050565b600060088302610dcb7fffffffffffffffffffffffffffffffffffffffffffffffffffffffffffffffff82610d8e565b610dd58683610d8e565b95508019841693508086168417925050509392505050565b6000819050919050565b6000610e12610e0d610e0884610762565b610ded565b610762565b9050919050565b6000819050919050565b610e2c83610df7565b610e40610e3882610e19565b848454610d9b565b825550505050565b600090565b610e55610e48565b610e60818484610e23565b505050565b5b81811015610e8457610e79600082610e4d565b600181019050610e66565b5050565b601f821115610ec957610e9a81610d69565b610ea384610d7e565b81016020851015610eb2578190505b610ec6610ebe85610d7e565b830182610e65565b50505b505050565b600082821c905092915050565b6000610eec60001984600802610ece565b1980831691505092915050565b6000610f058383610edb565b9150826002028217905092915050565b610f1e82610815565b67ffffffffffffffff811115610f3757610f36610aac565b5b610f418254610cc1565b610f4c828285610e88565b600060209050601f831160018114610f7f5760008415610f6d578287015190505b610f778582610ef9565b865550610fdf565b601f198416610f8d86610d69565b60005b82811015610fb557848901518255600182019150602085019450602081019050610f90565b86831015610fd25784890151610fce601f891682610edb565b8355505b6001600288020188555050505b505050505050565b6000606082019050610ffc60008301866107c5565b818103602083015261100e818561086c565b905061101d60408301846107c5565b94935050505056fea2646970667358221220b86ff912a0227ed8689f9f13790fb8bd8c00209422524281a76836e757a8359c64736f6c63430008130033",
  "immutableReferences": {},
  "source": "// SPDX-License-Identifier: MIT\r\npragma solidity ^0.8.19;\r\n\r\ncontract CommunityEventsOld {\r\n    struct Event {\r\n        uint256 eventId;\r\n        address organizer;\r\n        string title;\r\n        string description;\r\n        uint256 date;\r\n        string location;\r\n        bool isActive;\r\n    }\r\n\r\n    mapping(uint256 => Event) public events;\r\n    uint256 public totalEvents;\r\n\r\n    event EventCreated(\r\n        uint256 eventId,\r\n        address indexed organizer,\r\n        string title,\r\n        uint256 date\r\n    );\r\n\r\n    function createEvent(\r\n        string memory _title,\r\n        string memory _description,\r\n        uint256 _date,\r\n        string memory _location\r\n    ) public {\r\n        totalEvents++;\r\n        events[totalEvents] = Event(\r\n            totalEvents,\r\n            msg.sender,\r\n            _title,\r\n            _description,\r\n            _date,\r\n            _location,\r\n            true\r\n        );\r\n        emit EventCreated(totalEvents, msg.sender, _title, _date);\r\n    }\r\n\r\n    function getEvent(uint256 _eventId) public view returns (Event memory) {\r\n        return events[_eventId];\r\n    }\r\n\r\n    // Additional functions for event management (update, cancel, etc.) can be added as needed\r\n}\r\n",
  "sourcePath": "C:\\Users\\parth\\Desktop\\Web3.0\\Auth\\contracts\\CommunityEvents_old.sol",
  "compiler": {
    "name": "solc",
    "version": "0.8.19+commit.7dd6d404.Emscripten.clang"
  },
  "schemaVersion": "3.4.16",
  "updatedAt": "2024-03-27T05:08:16.450Z",
  "devdoc": {
    "kind": "dev",
    "methods": {},
    "version": 1
  },
  "userdoc": {
    "kind": "user",
    "methods": {},
    "version": 1
  }
}