{
  "contractName": "CommunityEvents",
  "abi": [
    {
      "anonymous": false,
      "inputs": [
        {
          "indexed": false,
          "internalType": "string",
          "name": "title",
          "type": "string"
        },
        {
          "indexed": false,
          "internalType": "uint256",
          "name": "date",
          "type": "uint256"
        }
      ],
      "name": "EventCreated",
      "type": "event"
    },
    {
      "inputs": [
        {
          "internalType": "address",
          "name": "",
          "type": "address"
        },
        {
          "internalType": "uint256",
          "name": "",
          "type": "uint256"
        }
      ],
      "name": "communityEvents",
      "outputs": [
        {
          "internalType": "string",
          "name": "title",
          "type": "string"
        },
        {
          "internalType": "string",
          "name": "description",
          "type": "string"
        },
        {
          "internalType": "uint256",
          "name": "date",
          "type": "uint256"
        },
        {
          "internalType": "string",
          "name": "location",
          "type": "string"
        },
        {
          "internalType": "bool",
          "name": "isActive",
          "type": "bool"
        }
      ],
      "stateMutability": "view",
      "type": "function",
      "constant": true
    },
    {
      "inputs": [],
      "name": "totalEvents",
      "outputs": [
        {
          "internalType": "uint256",
          "name": "",
          "type": "uint256"
        }
      ],
      "stateMutability": "view",
      "type": "function",
      "constant": true
    },
    {
      "inputs": [
        {
          "internalType": "string",
          "name": "_title",
          "type": "string"
        },
        {
          "internalType": "string",
          "name": "_description",
          "type": "string"
        },
        {
          "internalType": "uint256",
          "name": "_date",
          "type": "uint256"
        },
        {
          "internalType": "string",
          "name": "_location",
          "type": "string"
        }
      ],
      "name": "createEvent",
      "outputs": [],
      "stateMutability": "nonpayable",
      "type": "function"
    },
    {
      "inputs": [
        {
          "internalType": "address",
          "name": "_communityAddress",
          "type": "address"
        }
      ],
      "name": "getActiveEvents",
      "outputs": [
        {
          "components": [
            {
              "internalType": "string",
              "name": "title",
              "type": "string"
            },
            {
              "internalType": "string",
              "name": "description",
              "type": "string"
            },
            {
              "internalType": "uint256",
              "name": "date",
              "type": "uint256"
            },
            {
              "internalType": "string",
              "name": "location",
              "type": "string"
            },
            {
              "internalType": "bool",
              "name": "isActive",
              "type": "bool"
            }
          ],
          "internalType": "struct CommunityEvents.Event[]",
          "name": "",
          "type": "tuple[]"
        }
      ],
      "stateMutability": "view",
      "type": "function",
      "constant": true
    },
    {
      "inputs": [
        {
          "internalType": "address",
          "name": "_communityAddress",
          "type": "address"
        }
      ],
      "name": "getOldEvents",
      "outputs": [
        {
          "components": [
            {
              "internalType": "string",
              "name": "title",
              "type": "string"
            },
            {
              "internalType": "string",
              "name": "description",
              "type": "string"
            },
            {
              "internalType": "uint256",
              "name": "date",
              "type": "uint256"
            },
            {
              "internalType": "string",
              "name": "location",
              "type": "string"
            },
            {
              "internalType": "bool",
              "name": "isActive",
              "type": "bool"
            }
          ],
          "internalType": "struct CommunityEvents.Event[]",
          "name": "",
          "type": "tuple[]"
        }
      ],
      "stateMutability": "view",
      "type": "function",
      "constant": true
    }
  ],
  "bytecode": "0x608060405234801561001057600080fd5b506115eb806100206000396000f3fe608060405234801561001057600080fd5b50600436106100575760003560e01c806349cda2531461005c578063ba87068614610090578063d3fa3127146100ae578063d51f08df146100de578063ff3a0fb61461010e575b600080fd5b61007660048036038101906100719190610c97565b61012a565b604051610087959493929190610d91565b60405180910390f35b610098610322565b6040516100a59190610df9565b60405180910390f35b6100c860048036038101906100c39190610e14565b610328565b6040516100d59190610fef565b60405180910390f35b6100f860048036038101906100f39190610e14565b6106c9565b6040516101059190610fef565b60405180910390f35b61012860048036038101906101239190611146565b610a68565b005b6000602052816000526040600020818154811061014657600080fd5b90600052602060002090600502016000915091505080600001805461016a90611230565b80601f016020809104026020016040519081016040528092919081815260200182805461019690611230565b80156101e35780601f106101b8576101008083540402835291602001916101e3565b820191906000526020600020905b8154815290600101906020018083116101c657829003601f168201915b5050505050908060010180546101f890611230565b80601f016020809104026020016040519081016040528092919081815260200182805461022490611230565b80156102715780601f1061024657610100808354040283529160200191610271565b820191906000526020600020905b81548152906001019060200180831161025457829003601f168201915b50505050509080600201549080600301805461028c90611230565b80601f01602080910402602001604051908101604052809291908181526020018280546102b890611230565b80156103055780601f106102da57610100808354040283529160200191610305565b820191906000526020600020905b8154815290600101906020018083116102e857829003601f168201915b5050505050908060040160009054906101000a900460ff16905085565b60015481565b606060008060008473ffffffffffffffffffffffffffffffffffffffff1673ffffffffffffffffffffffffffffffffffffffff16815260200190815260200160002090506000805b82805490508110156103d55782818154811061038f5761038e611261565b5b906000526020600020906005020160040160009054906101000a900460ff16156103c25781806103be906112bf565b9250505b80806103cd906112bf565b915050610370565b5060008167ffffffffffffffff8111156103f2576103f161101b565b5b60405190808252806020026020018201604052801561042b57816020015b610418610bbe565b8152602001906001900390816104105790505b5090506000805b84805490508110156106bc5784818154811061045157610450611261565b5b906000526020600020906005020160040160009054906101000a900460ff16156106a95784818154811061048857610487611261565b5b90600052602060002090600502016040518060a00160405290816000820180546104b190611230565b80601f01602080910402602001604051908101604052809291908181526020018280546104dd90611230565b801561052a5780601f106104ff5761010080835404028352916020019161052a565b820191906000526020600020905b81548152906001019060200180831161050d57829003601f168201915b5050505050815260200160018201805461054390611230565b80601f016020809104026020016040519081016040528092919081815260200182805461056f90611230565b80156105bc5780601f10610591576101008083540402835291602001916105bc565b820191906000526020600020905b81548152906001019060200180831161059f57829003601f168201915b50505050508152602001600282015481526020016003820180546105df90611230565b80601f016020809104026020016040519081016040528092919081815260200182805461060b90611230565b80156106585780601f1061062d57610100808354040283529160200191610658565b820191906000526020600020905b81548152906001019060200180831161063b57829003601f168201915b505050505081526020016004820160009054906101000a900460ff16151515158152505083838151811061068f5761068e611261565b5b602002602001018190525081806106a5906112bf565b9250505b80806106b4906112bf565b915050610432565b5081945050505050919050565b606060008060008473ffffffffffffffffffffffffffffffffffffffff1673ffffffffffffffffffffffffffffffffffffffff16815260200190815260200160002090506000805b8280549050811015610775578281815481106107305761072f611261565b5b906000526020600020906005020160040160009054906101000a900460ff1661076257818061075e906112bf565b9250505b808061076d906112bf565b915050610711565b5060008167ffffffffffffffff8111156107925761079161101b565b5b6040519080825280602002602001820160405280156107cb57816020015b6107b8610bbe565b8152602001906001900390816107b05790505b5090506000805b8480549050811015610a5b578481815481106107f1576107f0611261565b5b906000526020600020906005020160040160009054906101000a900460ff16610a485784818154811061082757610826611261565b5b90600052602060002090600502016040518060a001604052908160008201805461085090611230565b80601f016020809104026020016040519081016040528092919081815260200182805461087c90611230565b80156108c95780601f1061089e576101008083540402835291602001916108c9565b820191906000526020600020905b8154815290600101906020018083116108ac57829003601f168201915b505050505081526020016001820180546108e290611230565b80601f016020809104026020016040519081016040528092919081815260200182805461090e90611230565b801561095b5780601f106109305761010080835404028352916020019161095b565b820191906000526020600020905b81548152906001019060200180831161093e57829003601f168201915b505050505081526020016002820154815260200160038201805461097e90611230565b80601f01602080910402602001604051908101604052809291908181526020018280546109aa90611230565b80156109f75780601f106109cc576101008083540402835291602001916109f7565b820191906000526020600020905b8154815290600101906020018083116109da57829003601f168201915b505050505081526020016004820160009054906101000a900460ff161515151581525050838381518110610a2e57610a2d611261565b5b60200260200101819052508180610a44906112bf565b9250505b8080610a53906112bf565b9150506107d2565b5081945050505050919050565b60016000815480929190610a7b906112bf565b91905055506000803373ffffffffffffffffffffffffffffffffffffffff1673ffffffffffffffffffffffffffffffffffffffff1681526020019081526020016000206040518060a001604052808681526020018581526020018481526020018381526020016001151581525090806001815401808255809150506001900390600052602060002090600502016000909190919091506000820151816000019081610b2691906114b3565b506020820151816001019081610b3c91906114b3565b50604082015181600201556060820151816003019081610b5c91906114b3565b5060808201518160040160006101000a81548160ff02191690831515021790555050507f747e1e732fb8b14a9d37ef77dfbc2ee40ccb2fe8abd343f0511bb668f9b51aef8483604051610bb0929190611585565b60405180910390a150505050565b6040518060a00160405280606081526020016060815260200160008152602001606081526020016000151581525090565b6000604051905090565b600080fd5b600080fd5b600073ffffffffffffffffffffffffffffffffffffffff82169050919050565b6000610c2e82610c03565b9050919050565b610c3e81610c23565b8114610c4957600080fd5b50565b600081359050610c5b81610c35565b92915050565b6000819050919050565b610c7481610c61565b8114610c7f57600080fd5b50565b600081359050610c9181610c6b565b92915050565b60008060408385031215610cae57610cad610bf9565b5b6000610cbc85828601610c4c565b9250506020610ccd85828601610c82565b9150509250929050565b600081519050919050565b600082825260208201905092915050565b60005b83811015610d11578082015181840152602081019050610cf6565b60008484015250505050565b6000601f19601f8301169050919050565b6000610d3982610cd7565b610d438185610ce2565b9350610d53818560208601610cf3565b610d5c81610d1d565b840191505092915050565b610d7081610c61565b82525050565b60008115159050919050565b610d8b81610d76565b82525050565b600060a0820190508181036000830152610dab8188610d2e565b90508181036020830152610dbf8187610d2e565b9050610dce6040830186610d67565b8181036060830152610de08185610d2e565b9050610def6080830184610d82565b9695505050505050565b6000602082019050610e0e6000830184610d67565b92915050565b600060208284031215610e2a57610e29610bf9565b5b6000610e3884828501610c4c565b91505092915050565b600081519050919050565b600082825260208201905092915050565b6000819050602082019050919050565b600082825260208201905092915050565b6000610e8982610cd7565b610e938185610e6d565b9350610ea3818560208601610cf3565b610eac81610d1d565b840191505092915050565b610ec081610c61565b82525050565b610ecf81610d76565b82525050565b600060a0830160008301518482036000860152610ef28282610e7e565b91505060208301518482036020860152610f0c8282610e7e565b9150506040830151610f216040860182610eb7565b5060608301518482036060860152610f398282610e7e565b9150506080830151610f4e6080860182610ec6565b508091505092915050565b6000610f658383610ed5565b905092915050565b6000602082019050919050565b6000610f8582610e41565b610f8f8185610e4c565b935083602082028501610fa185610e5d565b8060005b85811015610fdd5784840389528151610fbe8582610f59565b9450610fc983610f6d565b925060208a01995050600181019050610fa5565b50829750879550505050505092915050565b600060208201905081810360008301526110098184610f7a565b905092915050565b600080fd5b600080fd5b7f4e487b7100000000000000000000000000000000000000000000000000000000600052604160045260246000fd5b61105382610d1d565b810181811067ffffffffffffffff821117156110725761107161101b565b5b80604052505050565b6000611085610bef565b9050611091828261104a565b919050565b600067ffffffffffffffff8211156110b1576110b061101b565b5b6110ba82610d1d565b9050602081019050919050565b82818337600083830152505050565b60006110e96110e484611096565b61107b565b90508281526020810184848401111561110557611104611016565b5b6111108482856110c7565b509392505050565b600082601f83011261112d5761112c611011565b5b813561113d8482602086016110d6565b91505092915050565b600080600080608085870312156111605761115f610bf9565b5b600085013567ffffffffffffffff81111561117e5761117d610bfe565b5b61118a87828801611118565b945050602085013567ffffffffffffffff8111156111ab576111aa610bfe565b5b6111b787828801611118565b93505060406111c887828801610c82565b925050606085013567ffffffffffffffff8111156111e9576111e8610bfe565b5b6111f587828801611118565b91505092959194509250565b7f4e487b7100000000000000000000000000000000000000000000000000000000600052602260045260246000fd5b6000600282049050600182168061124857607f821691505b60208210810361125b5761125a611201565b5b50919050565b7f4e487b7100000000000000000000000000000000000000000000000000000000600052603260045260246000fd5b7f4e487b7100000000000000000000000000000000000000000000000000000000600052601160045260246000fd5b60006112ca82610c61565b91507fffffffffffffffffffffffffffffffffffffffffffffffffffffffffffffffff82036112fc576112fb611290565b5b600182019050919050565b60008190508160005260206000209050919050565b60006020601f8301049050919050565b600082821b905092915050565b6000600883026113697fffffffffffffffffffffffffffffffffffffffffffffffffffffffffffffffff8261132c565b611373868361132c565b95508019841693508086168417925050509392505050565b6000819050919050565b60006113b06113ab6113a684610c61565b61138b565b610c61565b9050919050565b6000819050919050565b6113ca83611395565b6113de6113d6826113b7565b848454611339565b825550505050565b600090565b6113f36113e6565b6113fe8184846113c1565b505050565b5b81811015611422576114176000826113eb565b600181019050611404565b5050565b601f8211156114675761143881611307565b6114418461131c565b81016020851015611450578190505b61146461145c8561131c565b830182611403565b50505b505050565b600082821c905092915050565b600061148a6000198460080261146c565b1980831691505092915050565b60006114a38383611479565b9150826002028217905092915050565b6114bc82610cd7565b67ffffffffffffffff8111156114d5576114d461101b565b5b6114df8254611230565b6114ea828285611426565b600060209050601f83116001811461151d576000841561150b578287015190505b6115158582611497565b86555061157d565b601f19841661152b86611307565b60005b828110156115535784890151825560018201915060208501945060208101905061152e565b86831015611570578489015161156c601f891682611479565b8355505b6001600288020188555050505b505050505050565b6000604082019050818103600083015261159f8185610d2e565b90506115ae6020830184610d67565b939250505056fea2646970667358221220e325c6aa60d802eb454cbefec42ad569deb1589b6e6f81ee93ae456d7398cc8964736f6c63430008130033",
  "immutableReferences": {},
  "source": "// SPDX-License-Identifier: MIT\r\npragma solidity ^0.8.19;\r\n\r\ncontract CommunityEvents {\r\n    struct Event {\r\n        string title;\r\n        string description;\r\n        uint256 date;\r\n        string location;\r\n        bool isActive;\r\n    }\r\n\r\n    mapping(address => Event[]) public communityEvents; // Mapping of community address to events\r\n    uint256 public totalEvents;\r\n\r\n    event EventCreated(string title, uint256 date);\r\n\r\n    function createEvent(\r\n        string memory _title,\r\n        string memory _description,\r\n        uint256 _date,\r\n        string memory _location\r\n    ) public {\r\n        totalEvents++;\r\n        communityEvents[msg.sender].push(\r\n            Event(_title, _description, _date, _location, true)\r\n        );\r\n        emit EventCreated(_title, _date);\r\n    }\r\n\r\n    function getActiveEvents(\r\n        address _communityAddress\r\n    ) public view returns (Event[] memory) {\r\n        Event[] storage events = communityEvents[_communityAddress];\r\n        uint256 activeEventCount = 0;\r\n        for (uint256 i = 0; i < events.length; i++) {\r\n            if (events[i].isActive) {\r\n                activeEventCount++;\r\n            }\r\n        }\r\n        Event[] memory activeEvents = new Event[](activeEventCount);\r\n        uint256 currentIndex = 0;\r\n        for (uint256 i = 0; i < events.length; i++) {\r\n            if (events[i].isActive) {\r\n                activeEvents[currentIndex] = events[i];\r\n                currentIndex++;\r\n            }\r\n        }\r\n        return activeEvents;\r\n    }\r\n\r\n    function getOldEvents(\r\n        address _communityAddress\r\n    ) public view returns (Event[] memory) {\r\n        Event[] storage events = communityEvents[_communityAddress];\r\n        uint256 oldEventCount = 0;\r\n        for (uint256 i = 0; i < events.length; i++) {\r\n            if (!events[i].isActive) {\r\n                oldEventCount++;\r\n            }\r\n        }\r\n        Event[] memory oldEvents = new Event[](oldEventCount);\r\n        uint256 currentIndex = 0;\r\n        for (uint256 i = 0; i < events.length; i++) {\r\n            if (!events[i].isActive) {\r\n                oldEvents[currentIndex] = events[i];\r\n                currentIndex++;\r\n            }\r\n        }\r\n        return oldEvents;\r\n    }\r\n\r\n    // Function to deactivate expired events\r\n    // function deactivateExpiredEvents(address _communityAddress) public {\r\n    //     Event[] storage events = communityEvents[_communityAddress];\r\n    //     for (uint256 i = 0; i < events.length; i++) {\r\n    //         if (\r\n    //             events[i].isActive &&\r\n    //             block.timestamp > events[i].expiryTimestamp\r\n    //         ) {\r\n    //             events[i].isActive = false;\r\n    //         }\r\n    //     }\r\n    // }\r\n}\r\n",
  "sourcePath": "C:\\Users\\parth\\Desktop\\Web3.0\\Auth\\contracts\\CommunityEvents.sol",
  "compiler": {
    "name": "solc",
    "version": "0.8.19+commit.7dd6d404.Emscripten.clang"
  },
  "schemaVersion": "3.4.16",
  "updatedAt": "2024-03-27T05:09:14.330Z",
  "networkType": "ethereum",
  "devdoc": {
    "kind": "dev",
    "methods": {},
    "version": 1
  },
  "userdoc": {
    "kind": "user",
    "methods": {},
    "version": 1
  }
}