{
  "contractName": "FundContract",
  "abi": [
    {
      "inputs": [],
      "stateMutability": "nonpayable",
      "type": "constructor"
    },
    {
      "anonymous": false,
      "inputs": [
        {
          "indexed": true,
          "internalType": "address",
          "name": "contributor",
          "type": "address"
        },
        {
          "indexed": false,
          "internalType": "uint256",
          "name": "amount",
          "type": "uint256"
        }
      ],
      "name": "ContributionReceived",
      "type": "event"
    },
    {
      "inputs": [],
      "name": "admin",
      "outputs": [
        {
          "internalType": "address",
          "name": "",
          "type": "address"
        }
      ],
      "stateMutability": "view",
      "type": "function"
    },
    {
      "inputs": [
        {
          "internalType": "address",
          "name": "",
          "type": "address"
        }
      ],
      "name": "contributions",
      "outputs": [
        {
          "internalType": "uint256",
          "name": "",
          "type": "uint256"
        }
      ],
      "stateMutability": "view",
      "type": "function"
    },
    {
      "inputs": [],
      "name": "totalFunds",
      "outputs": [
        {
          "internalType": "uint256",
          "name": "",
          "type": "uint256"
        }
      ],
      "stateMutability": "view",
      "type": "function"
    },
    {
      "inputs": [],
      "name": "contribute",
      "outputs": [],
      "stateMutability": "payable",
      "type": "function"
    },
    {
      "inputs": [
        {
          "internalType": "uint256",
          "name": "amount",
          "type": "uint256"
        }
      ],
      "name": "withdrawFunds",
      "outputs": [],
      "stateMutability": "nonpayable",
      "type": "function"
    }
  ],
  "bytecode": "0x608060405234801561001057600080fd5b50336000806101000a81548173ffffffffffffffffffffffffffffffffffffffff021916908373ffffffffffffffffffffffffffffffffffffffff160217905550610715806100606000396000f3fe60806040526004361061004a5760003560e01c8063155dd5ee1461004f57806342e94c9014610078578063968ed600146100b5578063d7bb99ba146100e0578063f851a440146100ea575b600080fd5b34801561005b57600080fd5b50610076600480360381019061007191906103cf565b610115565b005b34801561008457600080fd5b5061009f600480360381019061009a919061045a565b610250565b6040516100ac9190610496565b60405180910390f35b3480156100c157600080fd5b506100ca610268565b6040516100d79190610496565b60405180910390f35b6100e861026e565b005b3480156100f657600080fd5b506100ff610370565b60405161010c91906104c0565b60405180910390f35b60008054906101000a900473ffffffffffffffffffffffffffffffffffffffff1673ffffffffffffffffffffffffffffffffffffffff163373ffffffffffffffffffffffffffffffffffffffff16146101a3576040517f08c379a000000000000000000000000000000000000000000000000000000000815260040161019a9061055e565b60405180910390fd5b478111156101e6576040517f08c379a00000000000000000000000000000000000000000000000000000000081526004016101dd906105ca565b60405180910390fd5b60008054906101000a900473ffffffffffffffffffffffffffffffffffffffff1673ffffffffffffffffffffffffffffffffffffffff166108fc829081150290604051600060405180830381858888f1935050505015801561024c573d6000803e3d6000fd5b5050565b60016020528060005260406000206000915090505481565b60025481565b600034116102b1576040517f08c379a00000000000000000000000000000000000000000000000000000000081526004016102a89061065c565b60405180910390fd5b34600160003373ffffffffffffffffffffffffffffffffffffffff1673ffffffffffffffffffffffffffffffffffffffff168152602001908152602001600020600082825461030091906106ab565b92505081905550346002600082825461031991906106ab565b925050819055503373ffffffffffffffffffffffffffffffffffffffff167f1bb460ccaaf70fbacfec17a376f8acbd278c1405590ffcc8ebe4b88daf4f64ad346040516103669190610496565b60405180910390a2565b60008054906101000a900473ffffffffffffffffffffffffffffffffffffffff1681565b600080fd5b6000819050919050565b6103ac81610399565b81146103b757600080fd5b50565b6000813590506103c9816103a3565b92915050565b6000602082840312156103e5576103e4610394565b5b60006103f3848285016103ba565b91505092915050565b600073ffffffffffffffffffffffffffffffffffffffff82169050919050565b6000610427826103fc565b9050919050565b6104378161041c565b811461044257600080fd5b50565b6000813590506104548161042e565b92915050565b6000602082840312156104705761046f610394565b5b600061047e84828501610445565b91505092915050565b61049081610399565b82525050565b60006020820190506104ab6000830184610487565b92915050565b6104ba8161041c565b82525050565b60006020820190506104d560008301846104b1565b92915050565b600082825260208201905092915050565b7f4f6e6c792061646d696e2063616e20706572666f726d2074686973206163746960008201527f6f6e000000000000000000000000000000000000000000000000000000000000602082015250565b60006105486022836104db565b9150610553826104ec565b604082019050919050565b600060208201905081810360008301526105778161053b565b9050919050565b7f496e73756666696369656e742066756e64730000000000000000000000000000600082015250565b60006105b46012836104db565b91506105bf8261057e565b602082019050919050565b600060208201905081810360008301526105e3816105a7565b9050919050565b7f436f6e747269627574696f6e206d75737420626520677265617465722074686160008201527f6e20300000000000000000000000000000000000000000000000000000000000602082015250565b60006106466023836104db565b9150610651826105ea565b604082019050919050565b6000602082019050818103600083015261067581610639565b9050919050565b7f4e487b7100000000000000000000000000000000000000000000000000000000600052601160045260246000fd5b60006106b682610399565b91506106c183610399565b92508282019050808211156106d9576106d861067c565b5b9291505056fea2646970667358221220cda7978caa2ca6cb12e6ce1b618fb0307b4f0a01aa06dd54f40a4d973075c75264736f6c63430008130033",
  "immutableReferences": {},
  "source": "// SPDX-License-Identifier: MIT\r\npragma solidity ^0.8.19;\r\n\r\ncontract FundContract {\r\n    address public admin;\r\n    mapping(address => uint256) public contributions;\r\n    uint256 public totalFunds;\r\n\r\n    event ContributionReceived(address indexed contributor, uint256 amount);\r\n\r\n    modifier onlyAdmin() {\r\n        require(msg.sender == admin, \"Only admin can perform this action\");\r\n        _;\r\n    }\r\n\r\n    constructor() {\r\n        admin = msg.sender;\r\n    }\r\n\r\n    function contribute() external payable {\r\n        require(msg.value > 0, \"Contribution must be greater than 0\");\r\n        contributions[msg.sender] += msg.value;\r\n        totalFunds += msg.value;\r\n        emit ContributionReceived(msg.sender, msg.value);\r\n    }\r\n\r\n    function withdrawFunds(uint256 amount) external onlyAdmin {\r\n        require(amount <= address(this).balance, \"Insufficient funds\");\r\n        payable(admin).transfer(amount);\r\n    }\r\n}\r\n",
  "sourcePath": "C:\\Users\\parth\\Desktop\\Web3.0\\Auth\\contracts\\Fund.sol",
  "compiler": {
    "name": "solc",
    "version": "0.8.19+commit.7dd6d404.Emscripten.clang"
  },
  "schemaVersion": "3.4.16",
  "updatedAt": "2024-03-27T05:08:16.460Z",
  "devdoc": {
    "kind": "dev",
    "methods": {},
    "version": 1
  },
  "userdoc": {
    "kind": "user",
    "methods": {},
    "version": 1
  }
}