{
  "contractName": "UserEvents",
  "abi": [
    {
      "inputs": [
        {
          "internalType": "address",
          "name": "_communityEventsContract",
          "type": "address"
        }
      ],
      "stateMutability": "nonpayable",
      "type": "constructor"
    },
    {
      "anonymous": false,
      "inputs": [
        {
          "indexed": true,
          "internalType": "address",
          "name": "user",
          "type": "address"
        },
        {
          "indexed": false,
          "internalType": "uint256",
          "name": "eventId",
          "type": "uint256"
        }
      ],
      "name": "UserEventJoined",
      "type": "event"
    },
    {
      "inputs": [],
      "name": "communityEventsContract",
      "outputs": [
        {
          "internalType": "contract CommunityEvents",
          "name": "",
          "type": "address"
        }
      ],
      "stateMutability": "view",
      "type": "function"
    },
    {
      "inputs": [
        {
          "internalType": "address",
          "name": "",
          "type": "address"
        },
        {
          "internalType": "uint256",
          "name": "",
          "type": "uint256"
        }
      ],
      "name": "userEvents",
      "outputs": [
        {
          "internalType": "uint256",
          "name": "",
          "type": "uint256"
        }
      ],
      "stateMutability": "view",
      "type": "function"
    },
    {
      "inputs": [
        {
          "internalType": "uint256",
          "name": "_eventId",
          "type": "uint256"
        }
      ],
      "name": "joinEvent",
      "outputs": [],
      "stateMutability": "nonpayable",
      "type": "function"
    },
    {
      "inputs": [
        {
          "internalType": "uint256",
          "name": "_eventId",
          "type": "uint256"
        }
      ],
      "name": "getEventDetails",
      "outputs": [
        {
          "internalType": "string",
          "name": "title",
          "type": "string"
        },
        {
          "internalType": "string",
          "name": "description",
          "type": "string"
        },
        {
          "internalType": "uint256",
          "name": "date",
          "type": "uint256"
        },
        {
          "internalType": "string",
          "name": "location",
          "type": "string"
        }
      ],
      "stateMutability": "view",
      "type": "function"
    }
  ],
  "bytecode": "0x608060405234801561001057600080fd5b50604051610bcc380380610bcc833981810160405281019061003291906100db565b806000806101000a81548173ffffffffffffffffffffffffffffffffffffffff021916908373ffffffffffffffffffffffffffffffffffffffff16021790555050610108565b600080fd5b600073ffffffffffffffffffffffffffffffffffffffff82169050919050565b60006100a88261007d565b9050919050565b6100b88161009d565b81146100c357600080fd5b50565b6000815190506100d5816100af565b92915050565b6000602082840312156100f1576100f0610078565b5b60006100ff848285016100c6565b91505092915050565b610ab5806101176000396000f3fe608060405234801561001057600080fd5b506004361061004c5760003560e01c806338d361e214610051578063987f8ff81461006d578063bdfc98931461008b578063ec38d5a0146100bb575b600080fd5b61006b600480360381019061006691906104d7565b6100ee565b005b610075610287565b6040516100829190610583565b60405180910390f35b6100a560048036038101906100a091906105dc565b6102ab565b6040516100b2919061062b565b60405180910390f35b6100d560048036038101906100d091906104d7565b6102dc565b6040516100e594939291906106d6565b60405180910390f35b60008054906101000a900473ffffffffffffffffffffffffffffffffffffffff1673ffffffffffffffffffffffffffffffffffffffff16636d1884e0826040518263ffffffff1660e01b8152600401610147919061062b565b600060405180830381865afa158015610164573d6000803e3d6000fd5b505050506040513d6000823e3d601f19601f8201168201806040525081019061018d91906109ca565b60c001516101d0576040517f08c379a00000000000000000000000000000000000000000000000000000000081526004016101c790610a5f565b60405180910390fd5b600160003373ffffffffffffffffffffffffffffffffffffffff1673ffffffffffffffffffffffffffffffffffffffff1681526020019081526020016000208190806001815401808255809150506001900390600052602060002001600090919091909150553373ffffffffffffffffffffffffffffffffffffffff167fe62ef6ccd28b1a7cbd03f178140b12d5028b59bec2172f15f56e90040401d3c78260405161027c919061062b565b60405180910390a250565b60008054906101000a900473ffffffffffffffffffffffffffffffffffffffff1681565b600160205281600052604060002081815481106102c757600080fd5b90600052602060002001600091509150505481565b6060806000606060008054906101000a900473ffffffffffffffffffffffffffffffffffffffff1673ffffffffffffffffffffffffffffffffffffffff16636d1884e0866040518263ffffffff1660e01b815260040161033c919061062b565b600060405180830381865afa158015610359573d6000803e3d6000fd5b505050506040513d6000823e3d601f19601f8201168201806040525081019061038291906109ca565b60c001516103c5576040517f08c379a00000000000000000000000000000000000000000000000000000000081526004016103bc90610a5f565b60405180910390fd5b60008060009054906101000a900473ffffffffffffffffffffffffffffffffffffffff1673ffffffffffffffffffffffffffffffffffffffff16636d1884e0876040518263ffffffff1660e01b8152600401610421919061062b565b600060405180830381865afa15801561043e573d6000803e3d6000fd5b505050506040513d6000823e3d601f19601f8201168201806040525081019061046791906109ca565b90508060400151816060015182608001518360a001519450945094509450509193509193565b6000604051905090565b600080fd5b600080fd5b6000819050919050565b6104b4816104a1565b81146104bf57600080fd5b50565b6000813590506104d1816104ab565b92915050565b6000602082840312156104ed576104ec610497565b5b60006104fb848285016104c2565b91505092915050565b600073ffffffffffffffffffffffffffffffffffffffff82169050919050565b6000819050919050565b600061054961054461053f84610504565b610524565b610504565b9050919050565b600061055b8261052e565b9050919050565b600061056d82610550565b9050919050565b61057d81610562565b82525050565b60006020820190506105986000830184610574565b92915050565b60006105a982610504565b9050919050565b6105b98161059e565b81146105c457600080fd5b50565b6000813590506105d6816105b0565b92915050565b600080604083850312156105f3576105f2610497565b5b6000610601858286016105c7565b9250506020610612858286016104c2565b9150509250929050565b610625816104a1565b82525050565b6000602082019050610640600083018461061c565b92915050565b600081519050919050565b600082825260208201905092915050565b60005b83811015610680578082015181840152602081019050610665565b60008484015250505050565b6000601f19601f8301169050919050565b60006106a882610646565b6106b28185610651565b93506106c2818560208601610662565b6106cb8161068c565b840191505092915050565b600060808201905081810360008301526106f0818761069d565b90508181036020830152610704818661069d565b9050610713604083018561061c565b8181036060830152610725818461069d565b905095945050505050565b600080fd5b7f4e487b7100000000000000000000000000000000000000000000000000000000600052604160045260246000fd5b61076d8261068c565b810181811067ffffffffffffffff8211171561078c5761078b610735565b5b80604052505050565b600061079f61048d565b90506107ab8282610764565b919050565b600080fd5b6000815190506107c4816104ab565b92915050565b6000815190506107d9816105b0565b92915050565b600080fd5b600080fd5b600067ffffffffffffffff82111561080457610803610735565b5b61080d8261068c565b9050602081019050919050565b600061082d610828846107e9565b610795565b905082815260208101848484011115610849576108486107e4565b5b610854848285610662565b509392505050565b600082601f830112610871576108706107df565b5b815161088184826020860161081a565b91505092915050565b60008115159050919050565b61089f8161088a565b81146108aa57600080fd5b50565b6000815190506108bc81610896565b92915050565b600060e082840312156108d8576108d7610730565b5b6108e260e0610795565b905060006108f2848285016107b5565b6000830152506020610906848285016107ca565b602083015250604082015167ffffffffffffffff81111561092a576109296107b0565b5b6109368482850161085c565b604083015250606082015167ffffffffffffffff81111561095a576109596107b0565b5b6109668482850161085c565b606083015250608061097a848285016107b5565b60808301525060a082015167ffffffffffffffff81111561099e5761099d6107b0565b5b6109aa8482850161085c565b60a08301525060c06109be848285016108ad565b60c08301525092915050565b6000602082840312156109e0576109df610497565b5b600082015167ffffffffffffffff8111156109fe576109fd61049c565b5b610a0a848285016108c2565b91505092915050565b7f4576656e74206973206e6f742061637469766500000000000000000000000000600082015250565b6000610a49601383610651565b9150610a5482610a13565b602082019050919050565b60006020820190508181036000830152610a7881610a3c565b905091905056fea26469706673582212206a1d044d976a14f9507b63354f6b3ef7577a6592dba871dc02d6898c17b1b29264736f6c63430008130033",
  "immutableReferences": {},
  "source": "// SPDX-License-Identifier: MIT\r\npragma solidity ^0.8.19;\r\n\r\nimport \"./CommunityEvents.sol\";\r\n\r\ncontract UserEvents {\r\n    CommunityEvents public communityEventsContract;\r\n\r\n    mapping(address => uint256[]) public userEvents;\r\n\r\n    event UserEventJoined(address indexed user, uint256 eventId);\r\n\r\n    constructor(address _communityEventsContract) {\r\n        communityEventsContract = CommunityEvents(_communityEventsContract);\r\n    }\r\n\r\n    function joinEvent(uint256 _eventId) public {\r\n        require(\r\n            communityEventsContract.getEvent(_eventId).isActive,\r\n            \"Event is not active\"\r\n        );\r\n\r\n        userEvents[msg.sender].push(_eventId);\r\n        emit UserEventJoined(msg.sender, _eventId);\r\n    }\r\n\r\n    function getEventDetails(\r\n        uint256 _eventId\r\n    )\r\n        public\r\n        view\r\n        returns (\r\n            string memory title,\r\n            string memory description,\r\n            uint256 date,\r\n            string memory location\r\n        )\r\n    {\r\n        require(\r\n            communityEventsContract.getEvent(_eventId).isActive,\r\n            \"Event is not active\"\r\n        );\r\n\r\n        CommunityEvents.Event memory eventDetails = communityEventsContract\r\n            .getEvent(_eventId);\r\n        return (\r\n            eventDetails.title,\r\n            eventDetails.description,\r\n            eventDetails.date,\r\n            eventDetails.location\r\n        );\r\n    }\r\n\r\n    // Additional functions for managing user event participation (leave event, get user events, etc.) can be added as needed\r\n}\r\n",
  "sourcePath": "C:\\Users\\parth\\Desktop\\Web3.0\\Auth\\contracts\\UserEvents.sol",
  "compiler": {
    "name": "solc",
    "version": "0.8.19+commit.7dd6d404.Emscripten.clang"
  },
  "schemaVersion": "3.4.16",
  "updatedAt": "2024-03-25T14:03:43.832Z",
  "devdoc": {
    "kind": "dev",
    "methods": {},
    "version": 1
  },
  "userdoc": {
    "kind": "user",
    "methods": {},
    "version": 1
  }
}