{
  "contractName": "VotingContract",
  "abi": [
    {
      "inputs": [
        {
          "internalType": "string[]",
          "name": "optionNames",
          "type": "string[]"
        }
      ],
      "stateMutability": "nonpayable",
      "type": "constructor"
    },
    {
      "anonymous": false,
      "inputs": [
        {
          "indexed": true,
          "internalType": "address",
          "name": "voter",
          "type": "address"
        },
        {
          "indexed": true,
          "internalType": "uint256",
          "name": "optionIndex",
          "type": "uint256"
        }
      ],
      "name": "Voted",
      "type": "event"
    },
    {
      "inputs": [],
      "name": "admin",
      "outputs": [
        {
          "internalType": "address",
          "name": "",
          "type": "address"
        }
      ],
      "stateMutability": "view",
      "type": "function"
    },
    {
      "inputs": [
        {
          "internalType": "uint256",
          "name": "",
          "type": "uint256"
        }
      ],
      "name": "options",
      "outputs": [
        {
          "internalType": "string",
          "name": "name",
          "type": "string"
        },
        {
          "internalType": "uint256",
          "name": "voteCount",
          "type": "uint256"
        }
      ],
      "stateMutability": "view",
      "type": "function"
    },
    {
      "inputs": [
        {
          "internalType": "address",
          "name": "",
          "type": "address"
        }
      ],
      "name": "voters",
      "outputs": [
        {
          "internalType": "bool",
          "name": "hasVoted",
          "type": "bool"
        },
        {
          "internalType": "uint256",
          "name": "voteIndex",
          "type": "uint256"
        }
      ],
      "stateMutability": "view",
      "type": "function"
    },
    {
      "inputs": [
        {
          "internalType": "uint256",
          "name": "optionIndex",
          "type": "uint256"
        }
      ],
      "name": "vote",
      "outputs": [],
      "stateMutability": "nonpayable",
      "type": "function"
    },
    {
      "inputs": [],
      "name": "getOptionCount",
      "outputs": [
        {
          "internalType": "uint256",
          "name": "",
          "type": "uint256"
        }
      ],
      "stateMutability": "view",
      "type": "function"
    },
    {
      "inputs": [
        {
          "internalType": "uint256",
          "name": "optionIndex",
          "type": "uint256"
        }
      ],
      "name": "getOptionVoteCount",
      "outputs": [
        {
          "internalType": "uint256",
          "name": "",
          "type": "uint256"
        }
      ],
      "stateMutability": "view",
      "type": "function"
    }
  ],
  "bytecode": "0x60806040523480156200001157600080fd5b5060405162001112380380620011128339818101604052810190620000379190620003b3565b336000806101000a81548173ffffffffffffffffffffffffffffffffffffffff021916908373ffffffffffffffffffffffffffffffffffffffff16021790555060005b81518110156200011c5760026040518060400160405280848481518110620000a757620000a662000404565b5b60200260200101518152602001600081525090806001815401808255809150506001900390600052602060002090600202016000909190919091506000820151816000019081620000f991906200067e565b506020820151816001015550508080620001139062000794565b9150506200007a565b5050620007e1565b6000604051905090565b600080fd5b600080fd5b600080fd5b6000601f19601f8301169050919050565b7f4e487b7100000000000000000000000000000000000000000000000000000000600052604160045260246000fd5b62000188826200013d565b810181811067ffffffffffffffff82111715620001aa57620001a96200014e565b5b80604052505050565b6000620001bf62000124565b9050620001cd82826200017d565b919050565b600067ffffffffffffffff821115620001f057620001ef6200014e565b5b602082029050602081019050919050565b600080fd5b600080fd5b600067ffffffffffffffff8211156200022957620002286200014e565b5b62000234826200013d565b9050602081019050919050565b60005b838110156200026157808201518184015260208101905062000244565b60008484015250505050565b6000620002846200027e846200020b565b620001b3565b905082815260208101848484011115620002a357620002a262000206565b5b620002b084828562000241565b509392505050565b600082601f830112620002d057620002cf62000138565b5b8151620002e28482602086016200026d565b91505092915050565b600062000302620002fc84620001d2565b620001b3565b9050808382526020820190506020840283018581111562000328576200032762000201565b5b835b818110156200037657805167ffffffffffffffff81111562000351576200035062000138565b5b808601620003608982620002b8565b855260208501945050506020810190506200032a565b5050509392505050565b600082601f83011262000398576200039762000138565b5b8151620003aa848260208601620002eb565b91505092915050565b600060208284031215620003cc57620003cb6200012e565b5b600082015167ffffffffffffffff811115620003ed57620003ec62000133565b5b620003fb8482850162000380565b91505092915050565b7f4e487b7100000000000000000000000000000000000000000000000000000000600052603260045260246000fd5b600081519050919050565b7f4e487b7100000000000000000000000000000000000000000000000000000000600052602260045260246000fd5b600060028204905060018216806200048657607f821691505b6020821081036200049c576200049b6200043e565b5b50919050565b60008190508160005260206000209050919050565b60006020601f8301049050919050565b600082821b905092915050565b600060088302620005067fffffffffffffffffffffffffffffffffffffffffffffffffffffffffffffffff82620004c7565b620005128683620004c7565b95508019841693508086168417925050509392505050565b6000819050919050565b6000819050919050565b60006200055f6200055962000553846200052a565b62000534565b6200052a565b9050919050565b6000819050919050565b6200057b836200053e565b620005936200058a8262000566565b848454620004d4565b825550505050565b600090565b620005aa6200059b565b620005b781848462000570565b505050565b5b81811015620005df57620005d3600082620005a0565b600181019050620005bd565b5050565b601f8211156200062e57620005f881620004a2565b6200060384620004b7565b8101602085101562000613578190505b6200062b6200062285620004b7565b830182620005bc565b50505b505050565b600082821c905092915050565b6000620006536000198460080262000633565b1980831691505092915050565b60006200066e838362000640565b9150826002028217905092915050565b620006898262000433565b67ffffffffffffffff811115620006a557620006a46200014e565b5b620006b182546200046d565b620006be828285620005e3565b600060209050601f831160018114620006f65760008415620006e1578287015190505b620006ed858262000660565b8655506200075d565b601f1984166200070686620004a2565b60005b82811015620007305784890151825560018201915060208501945060208101905062000709565b868310156200075057848901516200074c601f89168262000640565b8355505b6001600288020188555050505b505050505050565b7f4e487b7100000000000000000000000000000000000000000000000000000000600052601160045260246000fd5b6000620007a1826200052a565b91507fffffffffffffffffffffffffffffffffffffffffffffffffffffffffffffffff8203620007d657620007d562000765565b5b600182019050919050565b61092180620007f16000396000f3fe608060405234801561001057600080fd5b50600436106100625760003560e01c80630121b93f14610067578063409e220514610083578063a3ec138d146100b4578063a6bd5427146100e5578063b950462414610103578063f851a44014610133575b600080fd5b610081600480360381019061007c91906104fd565b610151565b005b61009d600480360381019061009891906104fd565b61032e565b6040516100ab9291906105c9565b60405180910390f35b6100ce60048036038101906100c99190610657565b6103ea565b6040516100dc92919061069f565b60405180910390f35b6100ed61041b565b6040516100fa91906106c8565b60405180910390f35b61011d600480360381019061011891906104fd565b610428565b60405161012a91906106c8565b60405180910390f35b61013b61049e565b60405161014891906106f2565b60405180910390f35b600160003373ffffffffffffffffffffffffffffffffffffffff1673ffffffffffffffffffffffffffffffffffffffff16815260200190815260200160002060000160009054906101000a900460ff16156101e1576040517f08c379a00000000000000000000000000000000000000000000000000000000081526004016101d890610759565b60405180910390fd5b6002805490508110610228576040517f08c379a000000000000000000000000000000000000000000000000000000000815260040161021f906107c5565b60405180910390fd5b604051806040016040528060011515815260200182815250600160003373ffffffffffffffffffffffffffffffffffffffff1673ffffffffffffffffffffffffffffffffffffffff16815260200190815260200160002060008201518160000160006101000a81548160ff02191690831515021790555060208201518160010155905050600281815481106102c0576102bf6107e5565b5b906000526020600020906002020160010160008154809291906102e290610843565b9190505550803373ffffffffffffffffffffffffffffffffffffffff167f4d99b957a2bc29a30ebd96a7be8e68fe50a3c701db28a91436490b7d53870ca460405160405180910390a350565b6002818154811061033e57600080fd5b9060005260206000209060020201600091509050806000018054610361906108ba565b80601f016020809104026020016040519081016040528092919081815260200182805461038d906108ba565b80156103da5780601f106103af576101008083540402835291602001916103da565b820191906000526020600020905b8154815290600101906020018083116103bd57829003601f168201915b5050505050908060010154905082565b60016020528060005260406000206000915090508060000160009054906101000a900460ff16908060010154905082565b6000600280549050905090565b60006002805490508210610471576040517f08c379a0000000000000000000000000000000000000000000000000000000008152600401610468906107c5565b60405180910390fd5b60028281548110610485576104846107e5565b5b9060005260206000209060020201600101549050919050565b60008054906101000a900473ffffffffffffffffffffffffffffffffffffffff1681565b600080fd5b6000819050919050565b6104da816104c7565b81146104e557600080fd5b50565b6000813590506104f7816104d1565b92915050565b600060208284031215610513576105126104c2565b5b6000610521848285016104e8565b91505092915050565b600081519050919050565b600082825260208201905092915050565b60005b83811015610564578082015181840152602081019050610549565b60008484015250505050565b6000601f19601f8301169050919050565b600061058c8261052a565b6105968185610535565b93506105a6818560208601610546565b6105af81610570565b840191505092915050565b6105c3816104c7565b82525050565b600060408201905081810360008301526105e38185610581565b90506105f260208301846105ba565b9392505050565b600073ffffffffffffffffffffffffffffffffffffffff82169050919050565b6000610624826105f9565b9050919050565b61063481610619565b811461063f57600080fd5b50565b6000813590506106518161062b565b92915050565b60006020828403121561066d5761066c6104c2565b5b600061067b84828501610642565b91505092915050565b60008115159050919050565b61069981610684565b82525050565b60006040820190506106b46000830185610690565b6106c160208301846105ba565b9392505050565b60006020820190506106dd60008301846105ba565b92915050565b6106ec81610619565b82525050565b600060208201905061070760008301846106e3565b92915050565b7f596f75206861766520616c726561647920766f74656400000000000000000000600082015250565b6000610743601683610535565b915061074e8261070d565b602082019050919050565b6000602082019050818103600083015261077281610736565b9050919050565b7f496e76616c6964206f7074696f6e20696e646578000000000000000000000000600082015250565b60006107af601483610535565b91506107ba82610779565b602082019050919050565b600060208201905081810360008301526107de816107a2565b9050919050565b7f4e487b7100000000000000000000000000000000000000000000000000000000600052603260045260246000fd5b7f4e487b7100000000000000000000000000000000000000000000000000000000600052601160045260246000fd5b600061084e826104c7565b91507fffffffffffffffffffffffffffffffffffffffffffffffffffffffffffffffff82036108805761087f610814565b5b600182019050919050565b7f4e487b7100000000000000000000000000000000000000000000000000000000600052602260045260246000fd5b600060028204905060018216806108d257607f821691505b6020821081036108e5576108e461088b565b5b5091905056fea2646970667358221220d0cec5b31cf908e2ffd4a3047577e402961d227d3ca9f777d9fea8d16fe5ab4164736f6c63430008130033",
  "immutableReferences": {},
  "source": "// SPDX-License-Identifier: MIT\r\npragma solidity ^0.8.19;\r\n\r\ncontract VotingContract {\r\n    // Structure to represent a voter\r\n    struct Voter {\r\n        bool hasVoted;\r\n        uint256 voteIndex;\r\n    }\r\n\r\n    // Structure to represent a voting option\r\n    struct Option {\r\n        string name;\r\n        uint256 voteCount;\r\n    }\r\n\r\n    address public admin;\r\n    mapping(address => Voter) public voters;\r\n    Option[] public options;\r\n\r\n    event Voted(address indexed voter, uint256 indexed optionIndex);\r\n\r\n    modifier onlyAdmin() {\r\n        require(msg.sender == admin, \"Only admin can perform this action\");\r\n        _;\r\n    }\r\n\r\n    modifier hasNotVoted() {\r\n        require(!voters[msg.sender].hasVoted, \"You have already voted\");\r\n        _;\r\n    }\r\n\r\n    constructor(string[] memory optionNames) {\r\n        admin = msg.sender;\r\n        for (uint256 i = 0; i < optionNames.length; i++) {\r\n            options.push(Option({name: optionNames[i], voteCount: 0}));\r\n        }\r\n    }\r\n\r\n    function vote(uint256 optionIndex) external hasNotVoted {\r\n        require(optionIndex < options.length, \"Invalid option index\");\r\n        voters[msg.sender] = Voter(true, optionIndex);\r\n        options[optionIndex].voteCount++;\r\n        emit Voted(msg.sender, optionIndex);\r\n    }\r\n\r\n    function getOptionCount() external view returns (uint256) {\r\n        return options.length;\r\n    }\r\n\r\n    function getOptionVoteCount(\r\n        uint256 optionIndex\r\n    ) external view returns (uint256) {\r\n        require(optionIndex < options.length, \"Invalid option index\");\r\n        return options[optionIndex].voteCount;\r\n    }\r\n}\r\n",
  "sourcePath": "C:\\Users\\parth\\Desktop\\Web3.0\\Auth\\contracts\\Voting.sol",
  "compiler": {
    "name": "solc",
    "version": "0.8.19+commit.7dd6d404.Emscripten.clang"
  },
  "schemaVersion": "3.4.16",
  "updatedAt": "2024-03-27T05:08:16.469Z",
  "devdoc": {
    "kind": "dev",
    "methods": {},
    "version": 1
  },
  "userdoc": {
    "kind": "user",
    "methods": {},
    "version": 1
  }
}